:020000040800F2
:1000000000500020BD01000803020008050200089E
:1000100007020008090200080B02000800000000A7
:100020000000000000000000000000000D020008B9
:100030000F0200080000000011020008130200086F
:1000400017020008190200081B0200081D02000820
:100050001F020008210200082302000825020008F0
:1000600027020008290200082B0200082D020008C0
:100070002F02000831020008330200083502000890
:1000800037020008390200083B0200083D02000860
:100090003F02000841020008430200084502000830
:1000A00047020008490200084B0200084D02000800
:1000B0004F020008510200085302000855020008D0
:1000C00057020008590200085B0200085D020008A0
:1000D0005F02000861020008630200086502000870
:1000E00067020008690200086B02000810B5054CA1
:1000F000237833B9044B13B10448AFF300800123D4
:10010000237010BD680000200000000050050008AA
:10011000084B10B51BB108490848AFF300800848E8
:10012000036803B910BD074B002BFBD0BDE810409E
:10013000184700BF000000006C00002050050008B8
:100140006800002000000000154B002B08BF134B77
:100150009D46A3F5803A00218B460F461348144A6A
:10016000121A00F0DBF90F4B002B00D098470E4B12
:10017000002B00D098470020002104000D000D48FE
:10018000002802D00C48AFF3008000F0A1F9200055
:10019000290000F077F900F087F900BF000008009F
:1001A0000050002000000000000000006800002057
:1001B0008400002000000000000000000649074AFB
:1001C000074B9A42BEBF51F8040B42F8040BF8E704
:1001D00004488047044800475C05000800000020F0
:1001E0006800002075020008490100081F49204AE4
:1001F000002301E041F8043B9142FBD300F042F9B7
:10020000FEE7FEE7FEE7FEE7FEE7FEE7FEE7FEE7C6
:10021000FEE7FEE7FEE7FEE7FEE7FEE7FEE7FEE7B6
:10022000FEE7FEE7FEE7FEE7FEE7FEE7FEE7FEE7A6
:10023000FEE7FEE7FEE7FEE7FEE7FEE7FEE7FEE796
:10024000FEE7FEE7FEE7FEE7FEE7FEE7FEE7FEE786
:10025000FEE7FEE7FEE7FEE7FEE7FEE7FEE7FEE776
:10026000FEE7FEE7FEE7FEE7FEE7FEE768000020A8
:100270008400002080B500AF154A154B1B6843F081
:10028000010313601249124B5A68124B13404B6022
:100290000F4A0F4B1B6823F0847323F480331360E1
:1002A0000B4A0B4B1B6823F480231360084A084B4E
:1002B0005B6823F4FE035360054B4FF41F029A6002
:1002C00000F00CF8044B4FF000629A6000BF80BD54
:1002D000001002400000FFF800ED00E080B500AF24
:1002E00000F002F800BF80BD80B483B000AF0023EF
:1002F0007B6000233B603A4A394B1B6843F48033F0
:100300001360374B1B6803F400333B607B68013399
:100310007B603B68002B03D17B68B3F5A06FF0D105
:100320002F4B1B6803F40033002B02D001233B60EA
:1003300001E000233B603B68012B4BD1294A294B4C
:100340001B6843F010031360264A264B1B6823F0FA
:1003500003031360234A234B1B6843F0020313601B
:100360001F4A1F4B5B6853601D4A1D4B5B685360FF
:100370001B4A1B4B5B6843F480635360184A184B5D
:100380005B6823F47C135360154A154B5B6843F498
:10039000E8135360124A124B1B6843F080731360DA
:1003A00000BF0F4B1B6803F00073002BF9D00C4A01
:1003B0000B4B5B6823F003035360094A084B5B68EF
:1003C00043F00203536000BF054B5B6803F00C036E
:1003D000082BF9D100BF0C37BD4680BC704700BF69
:1003E000001002400020024080B485B000AF786069
:1003F00022E00023FB601AE000BF00BF00BF00BF87
:1004000000BF00BF00BF00BF00BF00BF00BF00BFF4
:1004100000BF00BF00BF00BF00BF00BF00BF00BFE4
:1004200000BF00BF00BF00BFFB680133FB60FB687B
:1004300040F2E6329342DFD97B685A1E7A60002B85
:10044000D7D100BF1437BD4680BC704780B400AF21
:100450000A4A0A4B1B6843F004031360084B1B68ED
:10046000074B00221A60064A054B1B6843F44013F1
:10047000136000BFBD4680BC704700BF181002402B
:100480000008014080B500AFFFF7E0FF054A054BCB
:100490001B6883F0200313604FF47A70FFF7A4FF0A
:1004A000F4E700BF0C08014008B5074B044613B140
:1004B0000021AFF30080054B1868836A03B19847A9
:1004C000204600F033F800BF000000004C05000893
:1004D0000E4B70B51E460E4C0025E41AA410A54222
:1004E00004D056F8253098470135F8E700F020F899
:1004F000084B094C1E46E41AA4100025A54204D05E
:1005000056F8253098470135F8E770BD60000020A7
:1005100060000020600000206400002003460244C8
:10052000934202D003F8011BFAE77047FEE7000090
:10053000F8B500BFF8BC08BC9E467047F8B500BFD0
:10054000F8BC08BC9E467047430000000000002035
:0405500000000000A7
:08055400F4FBFF7F0100000031
:10055C00000000000000000000000000000000008F
:10056C00000000000000000000000000000000007F
:10057C00480500080000000000000000000000001A
:10058C00000000000000000000000000000000005F
:10059C00000000000000000000000000000000004F
:1005AC00000000000000000000000000000000003F
:0805BC0011010008ED00000828
:0400000508000000EF
:00000001FF
